:100000000C943E000C945B000C945B000C94020179
:100010000C945B000C945B000C945B000C945B00F4
:100020000C945B000C945B000C945B000C945B00E4
:100030000C945B000C945B000C945B000C945B00D4
:100040000C945B000C945B000C945B000C945B00C4
:100050000C945B000C945B000C945B000C945B00B4
:100060000C945B000C945B000C945B000C945B00A4
:100070000C945B000C945B000C945B0011241FBE7D
:10008000CFEFCDBFDFE3DEBF18E3A0E0B8E3E3E8E6
:10009000F7E002C005900D92A230B107D9F728E32E
:1000A000A2E0B8E301C01D92A730B207E1F70E94B9
:1000B0004E010C9452030C9400009091040895FF9B
:1000C000FCCF809302080895CF93DF93EC018881E1
:1000D000811103C0DF91CF91089521960E945D00A8
:1000E000F6CFCF93C82FE82FE295EF70F0E0EE58EF
:1000F000F84780810E945D00CF70EC2FF0E0EE5851
:10010000F8478081CF910C945D00CF93C82F80EE8B
:100110008093060481E080932604C23061F1C330ED
:1001200009F455C0C130B9F480E2809305042FE38F
:100130003DE043E0215030404040E1F700C0000086
:10014000809306048FE39DE023E08150904020409F
:10015000E1F700C0000081E08093250488EA96E87A
:100160000E94640080E38C0F0E945D008CE297E89F
:10017000CF910C94640080E4809305043FE34DE04C
:1001800093E0315040409040E1F700C00000809380
:1001900006042FE33DE043E0215030404040E1F7CA
:1001A00000C00000809305049FE32DE033E09150F0
:1001B00020403040E1F700C00000809306044FE388
:1001C0008DE093E0415080409040E1F7C2CF83E062
:1001D00090E8909305042FE33DE043E02150304048
:1001E0004040E1F700C00000909306042FE33DE09B
:1001F00043E0215030404040E1F700C00000815012
:1002000041F7A9CF1F921FB61F9211242F938F93EE
:100210009F939091090480910804282F247092FFE5
:100220000BC083FF09C0211136C081E080930638DE
:10023000109205381092043893FF24C0809106383C
:10024000813001F580910438880F8093043821159E
:1002500029F08091043881608093043880910538BA
:100260008F5F80930538883069F48091043820913D
:1002700003388695821303C081E08093023882E0C0
:1002800080930638909309049F918F912F911F902E
:100290001FBE1F90189510920638CECF00D0CDB754
:1002A000DEB788ED84BF21E02093610080EE80936B
:1002B000010420932104809306042093260488E0FF
:1002C0008093140480933104809326048093210446
:1002D00084E0809326048093220482E080930104CA
:1002E00087E490E1809308089093090880E4809364
:1002F00006088EEA96E80E94640090EE909305044A
:10030000E1E0E0932504FFE72AE186E0F150204098
:100310008040E1F700C0000090930604E0932604BB
:100320009FE3EDE0F3E09150E040F040E1F700C0E2
:100330000000809100380E94850034E0C32E40E820
:10034000B42E00E2DD24D39410E48091280481FDD2
:1003500041C08BE792E90197F1F700C0000080915E
:10036000280481FD37C08091280481FFFCCFEBE792
:10037000F2E93197F1F700C000002EE531E081E0AD
:10038000E3ECF9E03197F1F700C000009091280408
:1003900091FD17C0EBE7F2E93197F1F700C00000DB
:1003A0009091280491FD0DC0833058F48F5F909197
:1003B000280491FFFCCFEBE7F2E93197F1F700C099
:1003C000000021503040E1F68093003880910038E1
:1003D0000E9485008091080484FDB7CF8BE792E9E5
:1003E0000197F1F700C000008091080484FBFF240E
:1003F000F4F884FDAACF80910038823051F08091CA
:10040000080484FFFCCFEBE7F2E93197F1F700C075
:10041000000080910038823009F4B7C0833009F4BD
:10042000D0C0813009F091CF00930504FCE0F09337
:100430002204F093260487E893E10197F1F700C0C6
:100440000000909128049C709A8385EC96E80E94A5
:1004500064008A810E9471008CE297E80E94640027
:1004600024E0A22E9EE6E92E97E8F92E909124042E
:10047000F70181917F01937F8C70982B90932404D6
:10048000FCE0F09321048FE19EE40197F1F700C0B6
:100490000000F0932204F0932604E6E7F1E03197A0
:1004A000F1F700C00000809128048C708983FA81E4
:1004B000F81701F11093050482ED96E80E9464009C
:1004C000F70182910E94710081EE96E80E9464001B
:1004D00089810E9471008CE297E80E9464002FE7F6
:1004E00088E391E0215080409040E1F700C0000097
:1004F00010930604EBE7F2E93197F1F700C0000032
:10050000F2E7EF16F7E8FF0609F0B0CFAA9409F07A
:10051000A9CF85EE96E80E9464002CE02093220487
:10052000809128048C7089838CEDE82E85E0F82E6C
:100530009091280489819C7099839817A9F0109351
:10054000050483EF96E80E94640089810E9471008F
:100550008CE297E80E946400E3E2F4EF3197F1F750
:1005600000C000001093060483EC99E00197F1F7B6
:1005700000C0000091E0E91AF108D1F600930604EA
:100580008EEF96E80E946400E0CE8AE097E80E9431
:100590006400C0922604C0922104B09205048091A8
:1005A000080484FF07C0C0922204B09206048FE1C1
:1005B00097E8E8CFE3ECF9E03197F1F700C00000ED
:1005C000EECF8FE297E80E946400F8E0F98329817A
:1005D000293111F48AE18983E981EC3311F49DE337
:1005E000998300930704D0922704FCE0F09302045F
:1005F0002981209303381092023810920638109205
:10060000053810920438F0930904D092120482E065
:100610008093130478948BE490E0209102382111A8
:1006200008C0E3ECF9E03197F1F700C00000019752
:10063000A1F7F8941092120410921304FCE0F093C6
:100640000904809102388115C9F01093050482E5F0
:1006500097E80E94640089810E9471008CE297E80B
:100660000E946400F3942FED83E994E021508040D0
:100670009040E1F700C0000010930604E981EF5FAD
:10068000E983E83709F0A3CF00930604D09225044C
:100690008EE597E80E9464008F2D0E9471008CE225
:0806A00097E870CFF894FFCF3A
:1006A8004D4F444520000D0A444333342053414FF5
:1006B8002046757A7A65722075700D0A000D0A5BFE
:1006C8004D315D20626173653D005B4D315D207287
:1006D800657370207061743D0020733D005B4D317F
:1006E8005D206C697374656E0D0A005B4D315D2089
:1006F8006564676520005B4D315D20646F6E650D34
:100708000A000D0A5B4D325D2057414B452061734D
:10071800736572740D0A005B4D325D2072656C65FD
:10072800617365640D0A000D0A5B4D335D20493223
:1007380043206269742D62616E67206C6973746509
:100748006E2073776565700D0A005B4D335D204838
:100758004954203078005B4D335D20646F6E65200E
:10076800686974733D000008040C30313233343545
:0B077800363738394142434445460003
:02078300010073
:00000001FF
