:100000000C943E000C9453000C9453000C94530039
:100010000C9453000C9453000C9453000C94530014
:100020000C9453000C9453000C9453000C94530004
:100030000C9453000C9453000C9453000C945300F4
:100040000C9453000C9453000C9453000C945300E4
:100050000C9453000C9453000C9453000C945300D4
:100060000C9453000C9453000C9453000C945300C4
:100070000C9453000C9453000C94530011241FBE95
:10008000CFEFCDBFDFE3DEBF18E3A0E0B8E3E8E8E1
:10009000F6E002C005900D92A230B107D9F70E9498
:1000A000F3000C94D6020C9400009091040895FF84
:1000B000FCCF809302080895CF93DF93EC018881F1
:1000C000811103C0DF91CF91089521960E945500C0
:1000D000F6CFCF93C82FE82FE295EF70F0E0E95804
:1000E000F94780810E945500CF70EC2FF0E0E9586D
:1000F000F9478081CF910C945500CF93C82F80EEA3
:100100008093060481E080932604C23051F1C3300D
:1001100009F450C0C130A9F480E2809305042AE6B6
:1001200034E041E0215030404040E1F700C080938E
:1001300006048AE694E021E0815090402040E1F7F7
:1001400000C081E08093250480EB95E80E945C006C
:1001500080E38C0F0E94550084E396E8CF910C94C5
:100160005C0080E4809305043AE644E091E031507D
:1001700040409040E1F700C0809306042AE634E056
:1001800041E0215030404040E1F700C08093050439
:100190009AE624E031E0915020403040E1F700C081
:1001A000809306044AE684E091E04150804090400C
:1001B000E1F7C6CF83E090E8909305042AE634E0A7
:1001C00041E0215030404040E1F700C090930604E8
:1001D0002AE634E041E0215030404040E1F700C0E1
:1001E000815051F7AECFD0EED0930104C1E0C0935F
:1001F0002104D0930604C093260488E0809314045D
:1002000080933104809326048093210484E08093BA
:1002100026048093220482E0809301048DE695E019
:10022000809308089093090880E48093060886EB81
:1002300095E80E945C00D0930504C093250425ED49
:1002400088E092E0215080409040E1F7D09306048E
:10025000C0932604EAE6F4E021E0E150F0402040BB
:10026000E1F700C0809100380E947D0060E8C62E52
:1002700064E0D62E10E276E0B72ED0E48091280418
:1002800081FD40C083ED90E30197F1F700C00000CD
:100290008091280481FD36C08091280481FFFCCF25
:1002A000E3EDF0E33197F1F700C000002EE531E017
:1002B00081E0E1E4F3E03197F1F700009091280448
:1002C00091FD17C0E3EDF0E33197F1F700C00000B6
:1002D0009091280491FD0DC0833058F48F5F909168
:1002E000280491FFFCCFE3EDF0E33197F1F700C074
:1002F000000021503040E9F68093003880910038AA
:100300000E947D008091080484FDB8CF83ED90E3C6
:100310000197F1F700C0000080910804082F0071D8
:1003200084FDACCF80910038823051F08091080478
:1003300084FFFCCFE3EDF0E33197F1F700C000005C
:1003400080910038823009F4AAC0833009F4C2C019
:10035000813009F093CF109305048CE08093220440
:100360008093260482E896E00197F1F700C0C091DF
:100370002804CC708DEC95E80E945C008C2F0E94C4
:10038000690084E396E80E945C0034E0A32E4CE010
:10039000942E23E7E22E26E8F22E90912404F70112
:1003A00081917F01937F8C70982B9093240490927D
:1003B00021048AE09AE10197F1F700C090922204AB
:1003C0009092260496EA9A95F1F700C000912804CD
:1003D0000C70C017E1F0D09305048AED95E80E94F7
:1003E0005C00F70182910E94690089EE95E80E9405
:1003F0005C00802F0E94690084E396E80E945C0004
:10040000E5E3F2E83197F1F70000D093060483EDBD
:1004100090E30197F1F700C0000097E7E91696E82E
:10042000F90609F0BACFAA9409F0B3CF8DEE95E89A
:100430000E945C008CE080932204C0912804CC7060
:100440009CEDE92E95E0F92E909128048C2FC92F70
:10045000CC70C817A1F0D09305048BEF95E80E94EB
:100460005C008C2F0E94690084E396E80E945C0087
:10047000E1E6F1E53197F1F70000D093060481E45D
:1004800093E00197F1F7000091E0E91AF108E1F635
:100490001093060486E096E80E945C00EFCE82E1AD
:1004A00096E80E945C00D0922604D0922104C0926B
:1004B00005048091080484FF07C0D0922204C092F2
:1004C000060487E296E8E8CFE1E4F3E03197F1F73C
:1004D0000000EFCF87E396E80E945C00C8E080EC64
:1004E000E82E81E0F82EC93109F4CAE1CC3309F4D1
:1004F000CDE310930704F0922704109213088C2F79
:10050000880F80931C08E0921B08F09219082BE4D6
:1005100030E080911B0886FF38C0982F9170B09210
:100520001A08D0931B0880FF36C010921908911545
:10053000C9F0D093050487E596E80E945C008C2FF3
:100540000E94690084E396E80E945C000F5F9FE9C7
:10055000E6E8F1E09150E040F040E1F700C0000033
:10056000D0930604CF5FC83709F0BDCF10930604BF
:1005700081E08093250483E696E80E945C00802F4A
:100580000E94690084E396E887CF87FF04C0B09299
:100590001A08C0921B0881E493E00197F1F700006C
:1005A0002150304009F0B5CF90E0BFCFF894FFCF95
:1005B0004D4F444520000D0A444333342053414FEE
:1005C0002046757A7A65722075700D0A000D0A5BF7
:1005D0004D315D20626173653D005B4D315D207280
:1005E000657370207061743D0020733D005B4D3178
:1005F0005D206C697374656E0D0A005B4D315D2082
:100600006564676520005B4D315D20646F6E650D2C
:100610000A000D0A5B4D325D2057414B4520617346
:10062000736572740D0A005B4D325D2072656C65F6
:10063000617365640D0A000D0A5B4D335D2049321C
:100640004320736C6176652D6C697374656E2073DD
:10065000776565700D0A005B4D335D204849542075
:100660003078005B4D335D20646F6E65206869747F
:10067000733D000008040C303132333435363738DE
:080680003941424344454600A4
:0206880001006F
:00000001FF
